:020000041000EA
:1000000000B5324B212058609868022188439860DF
:10001000D860186158612E4B002199600221596106
:100020000121F02299502B49196001219960352056
:1000300000F044F80222904214D00621196600F024
:1000400034F8196E01211966002018661A6600F04E
:100050002CF8196E196E196E052000F02FF8012189
:100060000842F9D1002199601B49196000215960AB
:100070001A491B48016001219960EB211966A021F2
:10008000196600F012F800219960164914480160C1
:100090000121996001BC002800D000471248134993
:1000A000086003C880F30888084703B5996A0420EC
:1000B0000142FBD001200142F8D103BD02B5186610
:1000C0001866FFF7F2FF186E186E02BD00000240BE
:1000D000000000180000070000035F00212200005C
:1000E000F4000018222000A00001001008ED00E03C
:1000F00000000000000000000000000074B24E7A12
:1001000000200420F7010010C3010010C5010010F9
:10011000C1010010C1010010C1010010C101001097
:10012000C1010010C1010010C1010010C701001081
:10013000C1010010C1010010C9010010CB01001065
:10014000CD010010CD010010CD010010CD01001037
:10015000CD010010CD010010CD010010CD01001027
:10016000CD010010CD010010CD010010CD01001017
:10017000CD010010CD010010CD010010CD01001007
:10018000CD010010CD010010CD010010CD010010F7
:10019000CD010010CD010010CD010010CD010010E7
:1001A000CD010010CD010010CD010010CD010010D7
:1001B000CD010010CD010010CD010010CD010010C7
:1001C00000BE00BE00BE00BE00BE00BE00F04BF888
:1001D000103800BEF2EB88712C6805104C680510D1
:1001E0003402001090A31AE700202149086006C8D5
:1001F00081F3088810471F48006800282FD10DA4FC
:100200000ECC002902D000F012F8F9E71A491B4A77
:10021000002000E001C19142FCD1194988471949E9
:1002200088471949884700BEFDE701C901C29A42C3
:10023000FBD370474C680510C0000020980F0020C9
:100240002477051000000420000004202477051006
:1002500000100420001004200000000070470B482C
:1002600001F076FC0047EFF30580C0B27047000054
:1002700008ED00E0000000D0980F002074C70020B7
:10028000ED6F0010350B0010117100105756000073
:1002900006005250ABB3605378E101100600525093
:1002A000861C030290E10110060052505422A29DC8
:1002B000A0E1011005005250DE65F46824770510B6
:1002C000F8B5C04610B5064C2378002B07D1054B76
:1002D000002B02D0044800E000BF0123237010BDB2
:1002E000A81100200000000088CE0110044B10B5BA
:1002F000002B03D00349044800E000BF10BDC046F6
:1003000000000000AC11002088CE011070B505007F
:100310000C00002A25D1002923D0184809F0C0FA82
:100320001749012009F01EF9011E20D08923083544
:100330001B010460C55020000DF002FF2000114990
:100340000DF008FF200010490DF0FEFE0A222000EB
:100350000E490DF013FF20000D490DF001FF0020A4
:1003600070BD0C4809F09CFA06204042F8E70A48A4
:1003700009F096FA01204042F2E7C0469CCE0110F7
:10038000940800007D040010810800109D030010F7
:100390001104001088CE0110B0CE011070B5060017
:1003A00019480C00002509F07BFA002C1ED0002112
:1003B00020000DF0C5FE0022002120000DF0DEFE21
:1003C000002120000DF0C6FE002120000DF0BCFE33
:1003D000002120000DF0C4FE20000EF095FB051E4C
:1003E00006D1002E02D0300009F0E0F8280070BDE0
:1003F0000D250100054809F009FB20000DF0E4FF80
:100400006D42002EEFD1F1E7D4CE0110E8CE0110FD
:100410000B0070B504000D3300D170BD154809F014
:10042000F5FA2568002DF8D0002128000DF088FE8F
:100430000022002128000DF0A1FE002128000DF06F
:1004400089FE002128000DF07FFE002128000DF01C
:1004500087FE28000EF058FB011E03D1200009F092
:10046000A5F8DAE7044809F0D1FA28000DF0ACFF4E
:10047000F4E7C04608CF0110E8CE011070B50500C2
:100480000E0020481100140009F0C0FA6B681E4AE3
:100490009C461E4BAA58EB5864449B186C609C42C7
:1004A00002DA0024200070BD194809F0F9F9002E85
:1004B000F7D0002130000DF043FE00220021300073
:1004C0000DF05CFE002130000DF044FE00213000F4
:1004D0000DF03AFE002130000DF042FE30000EF02B
:1004E00013FB041E03D1280009F060F8DAE70D249D
:1004F0000100084809F08AFA30000DF065FF6442F7
:10050000F1E7C04620CF01108C08000088080000E9
:1005100034CF0110E8CE0110F0B5DE4657464E4606
:100520004546E0B5AE4C0126A54414000590AD4803
:1005300009F06CFAAC4809F0B3F9AC4F210038006F
:1005400009F064FA764207AAA9492000079617F035
:1005500023FE05000799A74809F058FA2900A64884
:1005600009F054FAA5492000089618F079F808AA6D
:10057000A34917F011FE0600A24809F091F9089965
:10058000A14809F043FA2100380009F03FFA00239E
:100590001C2200210AA8099309F014F809AB04935E
:1005A000012D00D1EEE0994809F030FAD422002361
:1005B0000021D2009FA89E9309F004F8944CD02605
:1005C0002700944B30379946934B9EAD984636069C
:1005D0000BE04246402111A808F0CAFA0434280072
:1005E00011A917F003FEA74207D023687268009391
:1005F000DA40D207EDD44A46ECE7002001F012F8C9
:100600003822002800D1B8E0844911A808F0E0FFA2
:1006100011A9280017F0EAFD02A98C460023804AA0
:10062000804862441360D4226044D200002108F064
:10063000C9FF02AA94467C4CD0262700784B2C3761
:1006400063449846794B36069A46794B99460BE0B7
:100650004A46402111A808F08BFA0434404611A9FB
:1006600017F0C4FDA74206D023687268DA40D207AB
:10067000EED45246EDE7F82200230021520022A8D2
:10068000219308F09FFF6B4B6B4E9B4621AB994625
:100690006A4B6B4C9A4637681A2F6CD01B2F66D06A
:1006A0001C2F5ED1802322689B015340E022D2019F
:1006B0001340644A1360042253461A60FC322368D4
:1006C0001342FCD0606804360004000C08F0DCFE25
:1006D0005D4908F0D2FE08F0F9FE3B005A46009052
:1006E0000191402111A808F043FA484617F00CFE8A
:1006F00011A9484417F000FE544B9E42CBD102A9E9
:100700008C460023524A5348624413600021524AE7
:10071000604408F057FF4B4602ACA4460293FA210E
:1007200043464B4801934D4A049B0095C9006044E1
:1007300008F01EFAA4468021454B059863441A0030
:100740000901883008F014FA0400454809F0A8F8B7
:100750002000444B9D44F0BCBB46B246A946A0468F
:10076000F0BD1D2FA7D1C02322689B019DE78023E8
:1007700022685B0199E7236898E73B4911A808F0D4
:1007800027FF45E7012E00D00DE7384809F088F82B
:100790000799202917DCD023089A8E401B06002ACF
:1007A0001BD05E61324809F031F9089A079B002A94
:1007B00011D1304A09A90491009208002E4A202143
:1007C00008F0D6F9EFE6089900204B1E9941C9B20E
:1007D00000F01EFFE9E7294AECE79E61E2E7C04628
:1007E0006CE8FFFF48CF01105CCF011070CF011003
:1007F00080CF011088CF011094CF0110A4CF011039
:10080000ACCF0110B8CF0110C8CF011028D0011013
:10081000B004002074D0011038D00110B0D0011005
:1008200014090000180900008404002034D10110CC
:1008300020D1011048D101107804002000E00440CC
:1008400000C0044000D004403333533A84040020F5
:10085000B80F0000BC0F0000CC07000074D10110DD
:1008600048D2011094170000E8D00110D4CF011035
:10087000E8CF011044CF011008D0011040CF011083
:10088000F0B54E464546DE465746E0B51400050035
:100890000E001A0083B0002C00D1A9E021890029A4
:1008A00000D184E0954809F0B1F8082398462389DF
:1008B000A8441A1C7F2B00D97F2200234146200028
:1008C00092B20CF061FE2B7A472B6CD143465B78D9
:1008D000452B68D1434654229B78D11A89469A42C7
:1008E00061D10C239B46AB443F21584617F0A4FC32
:1008F000071E0DD00378002B00D177E02021584649
:1009000017F09AFC4B463B700137002800D003706B
:100910007B4808F0C5FF88239A46AA4453463A000C
:1009200059462800FFF7F8FD814608F0EFFFFA204E
:10093000800005F081FF3A005946724809F066F8D8
:100940004B46714F4946EB51704809F05FF8FA2069
:10095000800005F071FF8023E9591B01994200D303
:100960006CE000292FD0C823009140468021684ABE
:1009700008F0FEF8674BE850002382B24146300091
:100980006B600FF045FF071E00D0B0E05E4BEA58E9
:10099000002A08D000235146300092B20FF038FFF1
:1009A000071E00D079E0300021890DF035F92000D4
:1009B0000CF09EFC0027380003B0F0BCBB46B246EA
:1009C000A946A046F0BD89231B01E85816F0CAFDD0
:1009D00080210300504A404608F0CAF84D4F414676
:1009E000E8514E4809F012F8E859C5E700278FE7AB
:1009F0004B4808F055FF0027002EDCD000213000C6
:100A00000DF09EFB0022002130000DF0B7FB00210D
:100A100030000DF09FFB002130000DF095FB002110
:100A200030000DF09DFB30000EF06EF8071E2AD14D
:100A3000002DC0D0280008F0B9FDBCE7394808F007
:100A4000E5FF002E1CD0002130000DF079FB0022C4
:100A5000002130000DF092FB002130000DF07AFBF8
:100A6000002130000DF070FB002130000DF078FB0C
:100A700030000EF049F8011E30D10F277F42D9E730
:100A80000F277F4297E70D270100274808F0BEFF98
:100A900030000DF099FC7F42CAE70100234808F0BE
:100AA000B5FF002E00D186E7002130000DF048FB95
:100AB0000022002130000DF061FB002130000DF01C
:100AC00049FB002130000DF03FFB002130000DF00C
:100AD00047FB30000EF018F8011EABD00D2712486E
:100AE00008F094FF30000DF06FFC7F42A2E7010098
:100AF0000F4808F08BFF002ED6D15CE770D20110B2
:100B00008CD20110A8D201108C080000B8D20110BC
:100B1000E0D201108808000040D3011074D3011006
:100B20005CD20110C4D20110E8CE0110A8D301108C
:100B300088D30110F0B5CE46474680B597B008F08F
:100B400071FF574805F078FE0C21012008F00AFDDE
:100B5000061E00D19EE000F0A9FD071E00D081E036
:100B60003400504A5049514800F0ECFC504B0834D6
:100B7000B360504B6A46210003A8009300F0E6FBE7
:100B8000210001A800F0B0FC50214B4808F03EFFC6
:100B90002E200DF00DFD041E00D170E0502200212A
:100BA0000CF044FF002862D1012120000CF0C4FFAA
:100BB0003060002867D031000DF0C2FA3F4930683C
:100BC0000DF0D4FA3023D02599462F3B98463C4C63
:100BD0002D06A144206804F0C3FF424608CC9A4089
:100BE0006A626A614C45F5D12C23D02599462B3B8E
:100BF0009846344C2D06A144206804F0B1FF4246CB
:100C000008CC9A40AA624C45F6D116F0C1FD0C23DF
:100C100098462D4DA84410CD1F21200004F0ECFE75
:100C200000212000002204F0FFFE0021200004F03B
:100C300083FF4545EFD104E000F076FD012005F08B
:100C4000FBFD3379002BF7D001A800F071FC03A85D
:100C500000F09CFB00F04EFD380017B0C0BCB94658
:100C6000B046F0BD194808F01BFE0127F4E718480C
:100C700008F0CCFE174808F013FE0127ECE71648F1
:100C800008F00EFEF6E7154808F00AFE20000DF009
:100C90003BFFEFE7124808F003FE0127DCE7C04600
:100CA0001027000004004000FCD3011008D40110FC
:100CB000C0A80401FFFFFF0014D401100D030010B1
:100CC000B00400208404002078040020E4D3011044
:100CD00048D4011078D4011030D4011064D401102C
:100CE000C8D30110F0B5D6464F464646C0B5B54C00
:100CF0001389A54405001400F22B0AD820000CF03B
:100D0000F7FA92239B009D44E0BCBA46B146A84640
:100D1000F0BD892209AE00233100200092000CF0C2
:100D200033FCF228EAD90223042229000DA83370EB
:100D300008F04EFCF223F35C012B73D0032BDDD1C2
:100D40009A27002345A97F0008E092AAD218343AD6
:100D5000FF3A127802329B18BB42CFDACA5CC8183D
:100D6000FF2ACBD0322AF0D182782B789A42C5D193
:100D7000C2786B789A42C1D10279AB789A42BDD1E0
:100D800043791F00103FFFB29946072FB6D80F3B9B
:100D9000DBB2DB009846A8440622404610A91CF0AE
:100DA00043F800280BD00622404687491CF03CF847
:100DB0000028A3D10622404610A908F009FC05F03E
:100DC00029FE002900D13AE2FA220023920007F01E
:100DD000A3FF7E4B36229C464B460137F374F0232B
:100DE0006044FF00EF19000CF8804846FF32F252D1
:100DF000313A0233FF3AF254B37F727F317F06906B
:100E0000B07C0590707C0490307C03902120305C95
:100E100002902020305C0190F07F00906C4808F038
:100E2000F5FD74E008239946A9440622484610A916
:100E30001BF0FAFF071E60D0634B062219004846DC
:100E400098461BF0F1FF071E00D0B9E0EB8961481E
:100E50001B041843824605F0DDFD002900D1D0E1D6
:100E6000FA220023920007F057FF5346181A00D5C4
:100E7000FEE110239946A9440622484610A91BF01A
:100E8000D3FF002800D15EE2082F00D1A6E02800A1
:100E9000062210A918301BF0C7FF002800D1D8E1A6
:100EA0002800062210A920301BF0BEFF002800D128
:100EB000D6E12800062210A928301BF0B5FF002833
:100EC00000D1CFE12800062210A930301BF0ACFF82
:100ED000002800D1C8E12800062210A938301BF0F4
:100EE000A3FF002800D1C1E12800062210A940304C
:100EF0001BF09AFF002800D181E13622F023FF3257
:100F0000F252343A10370233FF3AF774F254F323B3
:100F100036221A200427F254FF300133F7542900F7
:100F2000323A684408F054FBF92301222020F2549D
:100F3000FF300133F754291D0332684408F048FBA1
:100F4000FF2303222620F254FF300133F7542900F7
:100F50000132684408F03CFB062306222C20FF33B4
:100F6000F254FF300133F7542900023A684408F084
:100F70002FFB0C233322FF33F254174BB33A4C931D
:100F800088235B00F2528921A0223620920049007A
:100F90000CF014F8061E00D1B0E6892209A952000F
:100FA000406808F015FB01235B4208933100A86CF0
:100FB000453308AA11F0C8F830000CF099F99DE605
:100FC000082743E7B8FDFFFFDCD40110005C2605CD
:100FD00090D40110FFFF0000040001510622414699
:100FE00048461BF021FF002800D1073FEB8AD1487B
:100FF0001B041843824605F00DFD002900D105E1D0
:10100000FA220023920007F087FE5346181A00D5F3
:101010003DE118239946A9440622484610A91BF031
:1010200003FF002800D114E1082F00D038E7062282
:10103000414648461BF0F8FE002800D1063FEB8BE6
:10104000BC481B041843824605F0E4FC002900D18B
:10105000E1E0FA220023920007F05EFE5346181AE0
:1010600000D523E120239946A9440622484610A929
:101070001BF0DAFE002800D1F2E0082F00D018E7BC
:101080000622414648461BF0CFFE002800D1053F0E
:10109000EB8CA8481B041843824605F0BBFC0029D2
:1010A00000D1BDE0FA220023920007F035FE53463E
:1010B000181A00D509E128239946A9440622484672
:1010C00010A91BF0B1FE002800D1CBE0082F00D002
:1010D000F8E60622414648461BF0A6FE002800D14D
:1010E000043FEB8D934A1B041A43924605F092FC91
:1010F000002900D199E0FA220023920007F00CFEAB
:101100005346181A00D5EFE030239946A944062229
:10111000484610A91BF088FE002800D1A4E0082F43
:1011200000D0D8E60622414648461BF07DFE002846
:1011300000D1033FEB8E7F4A1B041A43924605F011
:1011400069FC002976D0FA220023920007F0E4FD22
:101150005346181A00D5D6E038239946A9440622EA
:10116000484610A91BF060FE002800D17EE0082F41
:1011700000D0B9E60622414648461BF055FE00283D
:1011800000D1023FEB8F6B481B041843824605F0E9
:1011900041FC002958D0FA220023920007F0BCFD40
:1011A0005346181A00D5BDE040239946A9440622AB
:1011B000484610A91BF038FE002820D0082F00D088
:1011C0009BE60622414648461BF02EFE002800D131
:1011D000013F4623EB5A574A1B041A43904605F039
:1011E00019FC002937D0FA220023920007F094FD61
:1011F0004346181A00D59FE0082F00D17EE5072747
:101200007BE6FA21890007F045FD2EE6FA218900E8
:1012100007F040FDF9E6FA21890007F03BFD1DE7E4
:10122000FA21890007F036FD41E7FA21890007F02D
:1012300031FD65E7FA21890007F02CFD88E7FA21E6
:10124000890007F027FDC4E5FA21890007F022FD97
:10125000A6E7022751E6FA21890007F01BFDC7E740
:1012600003274AE6042748E6052746E6062744E61C
:1012700006220021484608F0A5F92800062210A9F8
:1012800010301BF0D1FD00285DD00027FFE50622BD
:101290000021484608F096F92800062210A91830C7
:1012A0001BF0C2FD0028D4D00127F9E50622002159
:1012B000484608F087F92800062210A920301BF0C4
:1012C000B3FD0028CCD00227F3E5062200214846D2
:1012D00008F078F92800062210A928301BF0A4FD98
:1012E0000028BFD00327EDE506220021484608F07C
:1012F00069F92800062210A930301BF095FD00285E
:10130000B2D00427E7E506220021484608F05AF942
:101310002800062210A938301BF086FD0028A5D031
:101320000527E1E506220021484608F04BF906278B
:10133000DAE5C046FFFF000006220021484608F01B
:1013400041F90727D9E50127D7E5C04610B50B6855
:1013500004000360136800214360402282B008301B
:1013600008F030F910F0AEFFA06400280AD0220087
:10137000054910F079FF00234322A06C01A90193D5
:1013800010F062FD02B010BDE50C001010B50400B5
:10139000806C002803D010F073FF0023A36410BDFD
:1013A000F0B54F464646D64615009622C0B5CCB09D
:1013B000984654AB1B8801AE0700994631000023C4
:1013C000280052000CF0E0F804000B2808D8280090
:1013D0000BF08EFF4CB0E0BCBA46B146A846F0BD5B
:1013E00070880BF081F88246B0880BF07DF8534688
:1013F0005246DB0BD20A13439BB2002BE7D10028E5
:10140000E5D0301904AB1C00984207D80DE03F2905
:10141000DDD80131C9B26418A04203D9217800296E
:10142000F5D10134E31AFF2BD1DCC0232371B43B87
:10143000637100239A46A3710133E37163725346CB
:101440003C3363735346524620000433E373391D23
:101450002272A272E2722273A27310301A0008F094
:10146000B7F81D480BF040F8708001200BF03CF8F5
:10147000B08001200BF038F853463381738180230C
:101480001434F080A41B5B029C4200D3134CA022B6
:101490003620A1B292000BF091FD8246002816D0B2
:1014A00022003100406808F093F84B46424651460E
:1014B000386810F049FE040050460BF019FF002C6C
:1014C00000D184E72100064808F0A0FA7FE705482C
:1014D00008F0E6F97BE7C04680840000FFFF0000CB
:1014E00010D50110E4D4011030B583B004000D0014
:1014F00010F0E8FE206000280ED022000A4910F00B
:10150000B3FE00233522206801A9019310F09CFC52
:10151000021E03D12B68636003B030BD3521034840
:1015200008F074FAF8E7C046A113001030D5011096
:1015300010B504000068002803D010F0A1FE0023BD
:10154000236010BDF8B5170006000D0016F0DCFE94
:1015500002001F2823D8C1B2154C164BE154164B7C
:101560003100E01808F034F8002D1DD0280016F0E6
:10157000CBFE02003F2815D9402140220F4BE154F9
:101580000F4B2900E01808F023F80E4BE7540E4BE0
:101590000122012120001B6804F036F8F8BD20214B
:1015A0002022D9E7C1B2E9E7064BE554EFE7C04690
:1015B000A0180020720800007408000073080000E2
:1015C0009408000071080000E004002010B582B00B
:1015D00068460C0000F0ECF86B460622991C2000CF
:1015E00007F0F6FF0122237893430222134323706E
:1015F00002B010BD044B10B59C46080003490622FA
:10160000614407F0E5FF10BD88090000A018002024
:1016100010B50A000100024804F05AF910BDC04696
:10162000A018002000B583B000236A460100D371E2
:101630000348073204F096F96B46D87903B000BD31
:10164000A018002070B5D0263606336830245A1E04
:1016500093410F4A022594465B4223406344DB6A70
:101660001D4200D170BD00220221182004F008FAAA
:1016700033685A1E93415B421C40064B01229C4634
:10168000C02364449B011C43034B25601A70E9E7A7
:10169000004101401C41014064C7002010B50122F7
:1016A0000221182004F0ECF910BDC04610B50E4818
:1016B00003F0A2FD0D4C2378002B10D08020402297
:1016C0000B49800104F006FA01220221182004F0DF
:1016D000D7F901210D2004F061FA002010BD0AF0B5
:1016E000F1FE01232370E9E7A018002066C700205F
:1016F0004516001010B500220221182004F0C0F990
:1017000080200449800104F007FA034803F0AAFD91
:1017100010BDC04645160010A01800200122014B44
:101720001A70704764C7002070B582B010F02EFAAE
:10173000174C2368002B04D0164D2A68002A02D1CA
:10174000984702B070BD05F065F9134E0090019105
:101750003268736800980199801A99410200002943
:101760000DDD2B68591E2960002902D101200B498B
:101770000870009A019B326073602368E0E70029DB
:10178000FBD1FA2189008A42EBD82368D8E7C0460A
:10179000981800209C180020A010002064C700208A
:1017A00010B5024800F0E0F810BDC046CCC50020DE
:1017B00010B50822014907F00BFF10BDCCC5002071
:1017C00030B54B1E012900D1A7E0664A11780D11F2
:1017D0002C0030349F2900D9A2E00470012B00D1E5
:1017E000BEE00F21147821400C003034092900DDBF
:1017F00098E04470022B00D1B2E054782511290002
:1018000030319F2C00D990E08170032B00D1A7E0EC
:101810000F2121400C003034092900DD87E0C4701D
:10182000042B00D19CE094782511290030319F2CA5
:1018300000D97FE00171052B00D191E00F212140FB
:101840000C003034092900DD76E04471062B00D10C
:1018500086E0D4782511290030319F2C00D96EE024
:101860008171072B00D17BE00F2121400C00303427
:10187000092966DCC471082B00D171E014792511A7
:10188000290030319F2C5FD80172092B68D00F21BD
:1018900021400C003034092958DC44720A2B5FD0F7
:1018A00054792511290030319F2C52D881720B2B8D
:1018B00056D00F2121400C00303409294BDCC47272
:1018C0000C2B4DD094792511290030319F2C00D953
:1018D000073101730D2B43D00F2121400C00303410
:1018E000092901DD37310C0044730E2B38D0D17932
:1018F0000C11220030329F2900D9073282730F2B3E
:101900002ED00F220A4011003731092A01DC303273
:101910001100C173102B23D010300023037030BD91
:1019200007345AE737310C0063E707316CE737318A
:101930000C0074E707317DE737310C0085E707318C
:101940008EE737310C0095E707319DE737310C0002
:10195000A3E70731AAE737310C00C4720C2BB1D1D1
:10196000C018DAE7CCC5002030B5002589B00400E6
:101970000922002101A8009507F024FE0922002178
:1019800005A8049507F01EFE4B236A4668461370AF
:1019900004A90D221BF030FA152108222000694409
:1019A00007F016FE09B030BDEFF3108072B6034A9F
:1019B0001368002BFCD0BFF35F8F70472C0100D061
:1019C000BFF35F8F0022024B1A6080F310887047CC
:1019D0002C0100D070B5EFF3108C72B60D4D2B6852
:1019E000002BFCD0BFF35F8F0724CB08C618C05C68
:1019F00001230C40A3401C000440034207D10343D1
:101A00003370BFF35F8F2C608CF3108870BD1000B3
:101A100005F09AFB2C0100D0F8B54746CE46884623
:101A200080B5EFF3108C72B6214D2C68002CFCD0E1
:101A3000BFF35F8F9A422CD8D4080727055D06199B
:101A400001241740BC402C421FD0072101278946A2
:101A500009E0D408055D06194C4639001440A14040
:101A60000C00294211D001329342F2D201204042AF
:101A7000BFF35F8F00220E4B1A608CF31088002892
:101A80000FDBC0BCB946B046F8BD2C431000347023
:101A9000EEE7BFF35F8F00232B608CF310880120EB
:101AA00040424346002BECD0089805F04DFBC04661
:101AB0002C0100D030B5EFF3108C72B60A4C2368BD
:101AC000002BFCD0BFF35F8F07230122CD08194004
:101AD0008A40435D93434355BFF35F8F00232360E8
:101AE0008CF3108830BDC0462C0100D0024B186822
:101AF0008007C00F7047C04600C006400021044B5D
:101B0000044ABFF35F8F02C39342FAD17047C046C5
:101B1000000100D0800100D0044A1078431CDBB2E1
:101B2000172B00D9102313707047C046E40400201F
:101B300000B5054B83B00100009318221F23034812
:101B4000FFF76AFF03B000BD54D5011068180020EC
:101B5000142310B50100188804331B88984710BD62
:101B6000162310B50100188802331B88984710BD52
:101B7000F8B54746CE4680B50F1E19D014239946B6
:101B8000043304000025012698464B461888434636
:101B900021681B88984701C4431E98410135404283
:101BA0000640AF42F1D13000C0BCB946B046F8BDE6
:101BB0000126F8E710B5052005F042FC030C64206F
:101BC0000349584307F066F80338FDD210BDC046FC
:101BD0009A3B0000F0B54646D6464F46C0B5664E25
:101BE000050082B0310065480AF01CFB002809D1CD
:101BF000310063480AF016FB002800D1B4E0062249
:101C00005F4801E007225D488427FF235D4C3F01C8
:101C10000021EC5120602372E37122710AF0E4FA92
:101C200040B2A071002800DAA1E0310020680AF07B
:101C30002DFB40B2421D60711203C00110433023DE
:101C4000514AC8270240924601225048BC460168CA
:101C500080278B434E49BF020B60036810009843F6
:101C600008602068802301009B0138310B438021EC
:101C7000490419600621B846615691464B005B182D
:101C8000DB00C3189C44674642463A60CC22944627
:101C90009C446246574617601A00C027D032BF02E4
:101CA00017603C4ADC331A604B461D2200930AF051
:101CB000AFFB1820217903F09FFE1D20217903F04E
:101CC0009BFE01220021182003F0AEFE0121182006
:101CD00003F0C2FE0622A256002053009B18226881
:101CE000DB0094462C4A6344D8331A600AF0DAFBCE
:101CF000E07100200AF0D6FBE27943B223727F2A1A
:101D000008D80020002B05DB02B0E0BCBA46B14683
:101D1000A846F0BD84231B01EC58002C24D00621DA
:101D2000615600290CDB0522A256531C05D0310058
:101D300020680AF00FFB0621615620680AF044FA79
:101D400007202056002803DB0AF0A4FBFF23E371E1
:101D500008202056002803DB0AF09CFBFF23237297
:101D6000842300221B01EA5006204042CCE7EC59B4
:101D7000002CD4D1F8E7C0468CD5011000003050BB
:101D8000000020505C180020FFFFFF9F78C001403A
:101D900078D0014018771C2401E0000084231B0147
:101DA00070B5C4580500002C1CD0062161560029CE
:101DB0000CDB0522A256531C05D0124920680AF0FC
:101DC000C9FA0621615620680AF0FEF9072020565C
:101DD00000280DDA08202056002804DA8423002287
:101DE0001B01EA5070BD0AF055FBFF232372F5E793
:101DF0000AF050FBFF230820E37120560028EDDB9A
:101E0000F1E7C0468CD50110F0B557464E46454621
:101E1000DE46E0B58A469046994685B0002900D155
:101E2000A8E084231B01C5588022D02392041B06FE
:101E30009A611820297903F0DFFD4B46002B00D072
:101E4000A9E0012406212200695605278A40286856
:101E50000368934303604B005B18DB00C618CC3665
:101E6000EF573268029394467A1C12030392C64AD3
:101E7000FF01934662465B461A401300039A1A43D9
:101E80003A4332608022029B5201D033C31813437D
:101E9000802212061A601A6080235B041A000AF07E
:101EA00073FA06222600AA562968131D9E403300A5
:101EB0000868260003430B60130008339E4033007C
:101EC0000868072603430B6043469000DB000818B0
:101ED000013B036153009B18DB00AC4ACB18D8339D
:101EE0001A604A460261AA4A1A601F2268790240B3
:101EF0001A60AE57A022B440A64BD205D45080221F
:101F0000A54BB701FC185204236818001040134277
:101F1000FAD1A24BF602994201D08020C002A04B18
:101F20000C001E4043469A08A023DB059C465346FE
:101F3000674410343B607C60BA6080223043994E25
:101F400052043043F86001208A600B6803430B6041
:101F50008B681342FCD006210122695628688A400A
:101F600003689343036000231822009301330AF0AF
:101F70004FFAE9E04B46002B00D101E184231B011D
:101F8000C5588022D02392041B069A611820297913
:101F900003F032FDCA4601240621220069560527B6
:101FA0008A4028680368934303604B005B18DB009A
:101FB000C618CC36EF573268029394467A1D120346
:101FC0000392714AFF01934662465B461A40130032
:101FD000039A1A433A4332608022029B5201D03363
:101FE000C3181343802212061A601A6080235B0410
:101FF0001A000AF0C9F906232100EB562E689C4608
:10200000043399400B003268210013433360634668
:10201000083399400B0032684046134333606246F0
:1020200043469200DB00B218013B136163465B003C
:102030006344DB005549F318D83319600E99A02783
:10204000091AC90001391161514AFF051A601F229E
:1020500069790A401A600723EB561A009C404D4BE1
:102060009101FC5014008022A3464B4B5204C81827
:1020700003681342FCD15846082201230290AA5655
:10208000444893403B5093011800834603930298C1
:10209000414B80245B448346640418680700274052
:1020A0002042FAD15B463D48DB02864265D080275C
:1020B000C024FF02E4023A48D20203401F43394BD6
:1020C00002401F4343469B080293A023DB059B4627
:1020D000534659440B6010239A46B244534630008D
:1020E0004B60029B22438B60CF602F4920300A4314
:1020F0000E998908CB1A0399594408604846404410
:1021000048608B60CA60012361468B40326813438C
:1021100033600722254B80219C46AA564904920130
:10212000624413680B42FCD10822204B80219C465C
:10213000AA5649049201624413680B42FCD1002163
:102140004246484607F03EFA062169562B684A0087
:102150005218D2009B18164AD8331A60D023802216
:102160001B0692045A61FFF725FD002005B0F0BC64
:10217000BB46B246A946A046F0BD8024A4029AE719
:1021800005204042F2E7C0467F00FEFF20600000CD
:1021900040600000440400000C000050000020508B
:1021A000FD7F00FF19004000290040001000005092
:1021B00003A0000010B5172003F0D2FCD024802328
:1021C00024061B04002201216362172003F02CFC6B
:1021D000182003F0C5FC80235B0463621920A3610F
:1021E00003F0BEFC80239B046362636110BDC046A4
:1021F00070B5D024802524062D04A561142004F098
:102200001BFB6561FA2004F017FB182003F0A8FC03
:1022100080235B04A36270BD002300B585B00393E7
:102220000A4BD2021A40082309070A4308490093BF
:10223000114302AB49BA042202910021FFF7E4FDE9
:10224000002801D1039840BA05B000BD00F8FF0F87
:102250000400004010B586B0012916D0154BD202FB
:102260001A40082309070A43134903AC0A4303929F
:102270000093042223000021FFF7C6FD012300285C
:1022800001D19B00E05806B010BD0A4BD2021A40A3
:102290000A4B03AC1A430C2303920093042223003D
:1022A0000021FFF7B1FD0028EDD102239B00E0588B
:1022B000E9E7C04600F8FF0F0400004008000050A6
:1022C00010B586B0012916D0154BD2021A4008234A
:1022D00009070A43134903AC0A43039200930422FB
:1022E00023000021FFF790FD0123002801D19B006E
:1022F000E05806B010BD0A4BD2021A400A4B03AC9C
:102300001A430C2303920093042223000021FFF7B9
:102310007BFD0028EDD102239B00E058E9E7C04691
:1023200000F8FF0F020000400600005010B586B014
:10233000012916D0154BD2021A40082309070A4377
:10234000134903AC0A4303920093042223000021A3
:10235000FFF75AFD0123002801D19B00E05806B089
:1023600010BD0A4BD2021A400A4B03AC1A430C238D
:1023700003920093042223000021FFF745FD00286B
:10238000EDD102239B00E058E9E7C04600F8FF0FBB
:102390000100004005000050F0B55BBAD6464F463C
:1023A0004646C0B584B003938423614CD2022240D8
:1023B00009070A435F491B01C4581143D02349BA96
:1023C000802201261B06920402919A61182021792D
:1023D00003F012FB062132006156CC278A402068A8
:1023E000BC460368544F934303600523E35602AD94
:1023F00098464B005B18DB00C21894446246126892
:10240000D033914642460132120392464A46174063
:1024100052463A434746FF013A4367463A608022B4
:10242000C31852011343802212061A601A608023D7
:102430005B041A0009F0A8FF0621370061562268E4
:102440000B1D9F403B0010683700034313600B00D7
:1024500008339F403B0010680727034313603F2366
:102460008800101803614B005B18DB003349D31858
:10247000D833196000210161314919601F21607949
:1024800001401960E757A021BE402E4BC905CE5030
:10249000BB019C4680212C4E4904664433681800D9
:1024A00008400B42FAD1294BFF029A4201D080200A
:1024B000C002274B11001F40A023DB0563441031ED
:1024C0001D6059600221996080213843214F4904E1
:1024D0003843D86001209160136803431360936808
:1024E0000B42FCD006210122615620688A40036815
:1024F00093430360002318220093013309F088FFFF
:102500000621615623684A005218D2009B18124ACD
:10251000D8331A60D02380221B0692045A61FFF739
:1025200049FB002004B0E0BCBA46B146A846F0BD65
:1025300000F8FF0F040000C07F00FEFF20600000D5
:1025400040600000440400000C00005000002050D7
:10255000FD7F00FF1900400003A00000F0B5D64643
:102560004F464646C0B5694CD20222400C07224372
:10257000674C84B0224302AD02926B6001290AD1FC
:1025800008246449445064494250644A8350852376
:1025900082681B01C25084231B01C4588022D023AF
:1025A00001261B0692049A611820217903F024FA6F
:1025B000062132006156CC278A402068BC46036859
:1025C000574F934303600523E35698464B005B182F
:1025D000DB00C218944462461268D03391464246EA
:1025E0000132120392464A46174052463A43474642
:1025F000FF013A4367463A608022C31852011343F1
:10260000802212061A601A6080235B041A0009F007
:10261000BBFE06213700615622680B1D9F403B0020
:1026200010683700034313600B0008339F403B00E2
:1026300010680727034313603F23880010180361C5
:102640004B005B18DB003749D318D83319600021E1
:102650000161354919601F21607901401960E75710
:10266000A021BE40314BC905CE50BB019C46802104
:102670002F4E490466443368180008400B42FAD1D3
:102680002C4BFF029A4201D08020C0022A4B11003D
:102690001F40A023DB05634410311D6059600221F7
:1026A000996080213843254F49043843D860012080
:1026B000916013680343136093680B42FCD00621BA
:1026C0000122615620688A40036893430360002317
:1026D00018220093013309F09BFE062161562368FE
:1026E0004A005218D2009B18154AD8331A60D023DA
:1026F00080221B0692045A61FFF75CFA002004B0A6
:10270000E0BCBA46B146A846F0BDC04600F8FF0F8F
:10271000040000C04C080000440800004808000005
:102720007F00FEFF206000004060000044040000C5
:102730000C00005000002050FD7F00FF19004000F9
:1027400003A00000F0B5D6464F464646C0B5694CDA
:10275000D20222400C072243674C84B0224302ADD0
:1027600002926B6001290AD10824644944506449EB
:102770004250644A8350852382681B01C2508423DF
:102780001B01C4588022D02301261B0692049A61A3
:102790001820217903F030F9062132006156CC2748
:1027A0008A402068BC460368574F93430360052363
:1027B000E35698464B005B18DB00C218944462460F
:1027C0001268D033914642460132120392464A467D
:1027D000174052463A434746FF013A4367463A603C
:1027E0008022C31852011343802212061A601A6015
:1027F00080235B041A0009F0C7FD062137006156EB
:1028000022680B1D9F403B00106837000343136094
:102810000B0008339F403B001068072703431360F9
:102820003F238800101803614B005B18DB00374919
:10283000D318D833196000210161354919601F216F
:10284000607901401960E757A021BE40314BC905AE
:10285000CE50BB019C4680212F4E4904664433680C
:10286000180008400B42FAD12C4BFF029A4201D0CB
:102870008020C0022A4B11001F40A023DB056344C7
:1028800010311D6059600221996080213843254F25
:1028900049043843D86001209160136803431360F2
:1028A00093680B42FCD006210122615620688A40C1
:1028B000036893430360002318220093013309F057
:1028C000A7FD0621615623684A005218D2009B18C2
:1028D000154AD8331A60D02380221B0692045A610D
:1028E000FFF768F9002004B0E0BCBA46B146A8463C
:1028F000F0BDC04600F8FF0F020000C04C08000009
:1029000044080000480800007F00FEFF206000002F
:1029100040600000440400000C0000500000205003
:10292000FD7F00FF1900400003A00000F0B5D6466F
:102930004F464646C0B5694CD20222400C0722439E
:10294000674C84B0224302AD02926B6001290AD128
:1029500008246449445064494250644A83508523A2
:1029600082681B01C25084231B01C4588022D023DB
:1029700001261B0692049A611820217903F03CF885
:10298000062132006156CC278A402068BC46036885
:10299000574F934303600523E35698464B005B185B
:1029A000DB00C218944462461268D0339146424616
:1029B0000132120392464A46174052463A4347466E
:1029C000FF013A4367463A608022C318520113431D
:1029D000802212061A601A6080235B041A0009F034
:1029E000D3FC06213700615622680B1D9F403B0037
:1029F00010683700034313600B0008339F403B000F
:102A000010680727034313603F23880010180361F1
:102A10004B005B18DB003749D318D833196000210D
:102A20000161354919601F21607901401960E7573C
:102A3000A021BE40314BC905CE50BB019C46802130
:102A40002F4E490466443368180008400B42FAD1FF
:102A50002C4BFF029A4201D08020C0022A4B110069
:102A60001F40A023DB05634410311D605960022123
:102A7000996080213843254F49043843D8600120AC
:102A8000916013680343136093680B42FCD00621E6
:102A90000122615620688A40036893430360002343
:102AA00018220093013309F0B3FC06216156236814
:102AB0004A005218D2009B18154AD8331A60D02306
:102AC00080221B0692045A61FFF774F8002004B0BC
:102AD000E0BCBA46B146A846F0BDC04600F8FF0FBC
:102AE000010000C04C080000440800004808000035
:102AF0007F00FEFF206000004060000044040000F2
:102B00000C00005000002050FD7F00FF1900400025
:102B100003A00000F0B5C64600B504001D0082B059
:102B200001292ED01F0018230120984600261A4B99
:102B3000D2021A4009073A430A4380210430C905EA
:102B400080000A432018426003224346E91C914357
:102B500004318919009120000021E3180132FFF7A8
:102B600053F9061E13D12100089B1C31994203D052
:102B70002A00180006F02CFD300002B080BCB846D8
:102B8000F0BD1F1D1423002098460426CFE7010046
:102B9000024806F03BFFEFE700F8FF0F70D5011089
:102BA000F0B54E464546DE46574691469846DA1CF5
:102BB0000323E0B59A4389B005000E000392022971
:102BC00024D02800129B1C3098423FD01900434665
:102BD00036071E434B46244ADF0217403E43C027B8
:102BE0003F063E434246AE6106F0F2FC2900002358
:102BF000039A2800043218310093FFF705F909B051
:102C0000F0BCBB46B246A946A046F0BD174B2027F4
:102C10009B460823164C9A4601E0013C10D35B46C4
:102C200005935346042200930021280005ABFFF7CB
:102C3000EBF8002800D106980742EED0002CC0D156
:102C40000C4806F02DFE06204042D8E74B46DF0236
:102C50004346054A360717401E433E43C0273F06FA
:102C60003E43AE61C2E7C04600F8FF0F044000409B
:102C7000E70300008CD70110836870B5CC0B05000A
:102C8000E403A3420BD063401A0E19D1FF221204B1
:102C900013420CD1FF221202134201D1AC6070BD6D
:102CA000012128000A4A230AFFF740FEF6E7230C19
:102CB00001212800074AFFF739FEAB686340E9E7C6
:102CC000230E0121044AFFF731FEAB686340DDE7C4
:102CD0000A0001000B0001000C000100F0B5C6461F
:102CE000033083089C4600B58E1E002B1DD00B00C0
:102CF00033435B0754D16346013B0A2B50D9C308C9
:102D00009846424630000B00D2008F1830CB30C0BE
:102D10009F42FBD14346B4185F008A18BC4504D0DB
:102D2000538810881B040343236008000B888A1D06
:102D30005BBA73808B1C1B680A301BBA7360126805
:102D400012BAB260006800BAF060452B03D03000C0
:102D500080BCB846F0BD082AF9D10B000A000C006F
:102D6000B232AE331B8810682E3425691A18AA4275
:102D700022D83A31C918081881424AD200270025C2
:102D800004E0DD2A1CD0C91888422CD94B780233C4
:102D9000CA189042F7D30A78302AF2D10D00F2E730
:102DA0006346320098003018938854881B042343EC
:102DB00008C28242F8D1B8E701235B42B360C6E79C
:102DC0008A1C90468A78002ADDD142465278502AE1
:102DD000D9D142469278F22AD5D14246D278012AF8
:102DE000D1D10F00CFE7002D10D006230422002FF1
:102DF0000AD0A28BD20601D5012213438422B15CF2
:102E0000B1520432B354A2E71300F2E702230022C6
:102E1000EDE70023EDE7C046F8B5CE46474605008E
:102E2000894680B5002932D001230121204AFFF7CD
:102E30007DFD0123012128001D4AFFF777FD0323B3
:102E400003279846012640240BE0012003F0F4FC00
:102E5000013C330001212800154AFFF767FD002CD3
:102E600010D001212800124AFFF760FA0028ECDB9D
:102E70003B0003404345E8D1FF28E6D0C0BCB9463B
:102E8000B046F8BD49460B4806F0C0FDF6E7002302
:102E90000121074AFFF74AFD002301212800044AC7
:102EA000FFF744FD0023012798460026CBE7C046E4
:102EB0001F000100A0D50110F0B5D6464F4646468A
:102EC000C0B5C37C05000F00924682B0002B04D130
:102ED000006802F009FA002865D0280002F00AFA1A
:102EE000AB7C002B05D101212800FFF795FF0123C2
:102EF000AB74EB7C002B64D0FA24A40002E0013C0C
:102F0000002C50D0082200212800FFF7A3F9431C11
:102F1000F5D0C30545D5C02203035B0D591ED20071
:102F2000914200D3B7E0820700D5B4E02C001C34F6
:102F30000022022128000094FFF7ECFD002828D190
:102F4000AB8BEA8B002B2AD00121E97466498C46B1
:102F500019005140614500D0A4E0D24392B293429F
:102F600000D0A6E00B2B00D8A9E02422AA5CAA730B
:102F70002122A95C123A0A40022A17D90C2B00D14F
:102F8000A9E0012A5BD0022A36D0002A47D00B20C4
:102F9000404202B0E0BCBA46B146A846F0BD002AA5
:102FA000D2D10023EB7401204042F2E72521695C75
:102FB0008C466646697B711AC9B21429DED86E73D5
:102FC000DCE7042200212800FFF77AF983B2984653
:102FD000464B000499461B88040C434502D08623C7
:102FE00023424DD14346002B4FD14B4642461A80D7
:102FF000A30600D580E7D6E7102B69D92322A95C68
:1030000002206118CA78920004328A18141B1C1B13
:103010008B78DB071C4353463C601A60B9E71B2BD7
:103020005FD92332AA5C2D8AA21851898D424CD1D6
:103030001032141B1C1B53463C601A60A9E7102B6E
:103040004CD92322AA5CA218D178890004315218E5
:10305000117B141B1B1B882934D1517B6C2931D166
:10306000D17C002928D1117D102925D1517D182925
:1030700022D1183B3B605346183201201A6088E782
:1030800021001B4806F0C2FCACE704220021280006
:10309000FFF758FBA9E7012301212800154AFFF794
:1030A00045FC7EE71900144806F0B0FC01204042C0
:1030B0006FE7022040426CE70A20404269E70320A4
:1030C000404266E70920404263E70620404260E74D
:1030D000072040425DE7042040425AE70820404272
:1030E00057E70520404254E7FFFF000052C7002089
:1030F000C4D501100D000100F0D50110F0B5DE4679
:103100004E46574645460400E0B587B09B46894683
:10311000039202F0EFF8A37C002B05D101212000DF
:10312000FFF77AFE0123A374A37B002B25D02C4E3E
:103130002C4FB36A98462C4B9A460DE0A17B002990
:1031400003D1207B637B83421BD14346ED1ABD42F2
:103150003ED8012352461370200005AA04A9B56A7F
:10316000FFF7AAFE0128E9D105990498FFF7B6FDFB
:103170000100200002F0C4F8E0E7207B637B83427B
:10318000D5D05946039B08710C339AB20A80D243BA
:103190004A805A4649465171002259468A71494629
:1031A00002394D4269415D4649000C310130E971F7
:1031B0002A816A8102212073002220000095FFF7F6
:1031C000EFFC07B0F0BCBB46B246A946A046F0BD36
:1031D000637B227B054806F019FC01204042F0E7A2
:1031E0000040054040420F0064C700201CD601107B
:1031F000F0B557464E464546DE4692461A00994679
:103200008023E0B51C3285B0050001911B019A4274
:103210001ED8524682624A461204038A120CC262C7
:103220000F9A01339BB2120303820A431B04134318
:10323000036300234A4643630E99383006F0C8F909
:103240002B004A46002128001C331032FFF756FF9E
:103250002B4B2C4A9E6A9B6A9B1B93422ED82A4B6F
:1032600001279B46294B98460FE0022836D00028BC
:1032700003DB0100584606F0C9FB43461F70204B94
:10328000204A9B6A9B1B934218D8280003AA02A9D4
:10329000FFF712FE041E2AD00128E6D103990298F6
:1032A000FFF71CFD0100280002F02AF843461F70BA
:1032B000134B144A9B6A9B1B9342E6D94B465246DA
:1032C00001240199124806F0A1FB6442200005B0D8
:1032D000F0BCBB46B246A946A046F0BD0299039B8E
:1032E0004A0028685208C90F01F0DCFEC5E7029ABF
:1032F0004A4500D94A4603990E9819F0BDFDE5E705
:10330000004005403F420F0040D6011064C7002036
:103310006CD60110F0B557464E464546DE469246FD
:103320001A0099468023E0B51C3285B00500019152
:103330001B019A421BD85246038A826201339BB218
:1033400003824A461B040B43036300231204120C3E
:10335000C26243634A460E99383006F039F92B00B1
:103360004A46002128001C331032FFF7C7FE2C4BC1
:103370002C4A9E6A9B6A9B1B93422ED82A4B01279C
:103380009B462A4B98460FE0022836D0002803DBE4
:103390000100584606F03AFB43461F70204B214A75
:1033A0009B6A9B1B934218D8280003AA02A9FFF727
:1033B00083FD041E2AD00128E6D103990298FFF765
:1033C0008DFC0100280001F09BFF43461F70144B49
:1033D000144A9B6A9B1B9342E6D94B4652460124F2
:1033E0000199134806F012FB6442200005B0F0BCBE
:1033F000BB46B246A946A046F0BD0299039B4A00CF
:1034000028685208C90F01F04DFEC5E7029A4A45E7
:1034100000D94A4603990E9819F02EFDE5E7C046FB
:10342000004005403F420F0040D6011064C7002015
:103430006CD60110F8B5CE46474604000D0080B5A5
:10344000012900D1D4E1D04B90279846FF01C02636
:1034500041462000FFF710FC3A0001212000FEF752
:1034600065FFA3687605B34210D073401A0E00D0F2
:10347000DBE0FF221204134200D0E3E0FF2212023D
:10348000134200D0EEE0C0235B05A360414620005C
:10349000FFF7F2FB3A0001212000FEF747FFC022B0
:1034A000A368520506009146934210D053401A0E6D
:1034B00000D093E1FF221204134200D082E1FF22E8
:1034C0001202134200D075E1C0235B05A360F3072D
:1034D00000D495E1012D00D18FE1AC4DAC4E31000F
:1034E0002000FFF7C9FB03232A0001212000FFF77A
:1034F0001DFAC022A36852059146934210D0534052
:103500001A0E00D04CE1FF221204134200D02EE12B
:10351000FF221202134200D021E1C0235B05A36009
:1035200031002000FFF7A8FB2A0001212000FEF750
:10353000FDFEC022A36852059146934210D053402D
:103540001A0E00D001E1FF221204134200D0F0E075
:10355000FF221202134200D0E3E0C0235B05A36008
:1035600041462000FFF788FB3A00C02700230121D5
:103570002000FFF7DBF9A3687F05BB4210D07B403A
:103580001A0E00D0C4E0FF221204134200D0B3E0B0
:10359000FF221202134200D0A6E0C0235B05A36005
:1035A000C027012003F048F931002000FFF764FB39
:1035B00001232A0001212000FFF7B8F9A3687F0545
:1035C000BB420FD07B401A0E00D084E0FF221204D1
:1035D000134200D073E0FF221202134267D1C023CE
:1035E0005B05A36031002000FFF746FB2A00C025E1
:1035F00001212000FEF79AFEA3686D05AB420DD0B5
:103600006B401A0E4AD1FF22120413423AD1FF2214
:10361000120213422ED1C0235B05A360012003F0E8
:103620000BF9C0BCB946B046F8BD1823594A012170
:103630002000FFF77BF9FF22A368120473401342B6
:1036400000D11BE7C023544A5B0101212000FFF792
:103650006DF9C023A2685B055340FF22120213429A
:1036600000D110E7C023012120004C4A5B03FFF783
:103670005DF908E7C02301212000484A5B03FFF7FA
:1036800055F9C8E7C023444A5B0101212000FFF738
:103690004DF9C023A2685B055340B8E71823012108
:1036A00020003C4AFFF742F9A3686B40ABE7C02318
:1036B00001212000394A5B03FFF738F98FE7C02367
:1036C000354A5B0101212000FFF730F9C023A268D1
:1036D0005B0553407FE71823012120002D4AFFF7A7
:1036E00025F9A3687B4071E7C023012120002B4A04
:1036F0005B03FFF71BF950E7C023274A5B01012159
:103700002000FFF713F9C023A2685B0553403FE791
:103710001823012120001F4AFFF708F9A3687B4006
:1037200031E7C023012120001C4A5B03FFF7FEF8AC
:1037300013E7C023184A5B0101212000FFF7F6F8C8
:10374000C023A2685B05534002E71823114A0121F8
:103750002000FFF7EBF84B46A2685340F3E6C02386
:10376000012120000D4A5B03FFF7E0F8D5E6C023F6
:10377000094A5B0101212000FFF7D8F8C023A268A5
:103780005B055340C4E6C0460048101808440000DA
:10379000084410180C0001000B0001000A00010091
:1037A0001823194A01212000FFF7C0F84B46A268F0
:1037B0005340A8E6C02301212000144A5B03FFF711
:1037C000B5F881E6C023124A5B0101212000FFF712
:1037D000ADF8C023A2685B05534070E618230A4A7F
:1037E00001212000FFF7A2F84B46A268534061E692
:1037F000E027084BBF01984629E6074D074E6EE6C5
:10380000074806F04DF865E60C0001000A000100CB
:103810000B0001000038101808340000083410189C
:1038200098D6011080225200828184220023120146
:1038300001608360837303618350704710B5FEF7A6
:10384000ADFA10BD70B5140004AA260005001800DA
:10385000137880221236120196421FD82A2220267F
:10386000AE542A0000262A3256709170D670002B72
:103870000DD10100280022002E3005F0A9FE2B00FA
:10388000022128001C33A21DFFF738FC70BD29005F
:103890000023A2B22E3109F077FEF0E70520404266
:1038A000F4E7C04630B50400174D83B069462000E8
:1038B00001AAFFF701FB0100431C10D0031DF5D046
:1038C000012817D002280CD0280006F09FF869467E
:1038D000200001AAFFF7F0FA0100431CEED103B06B
:1038E00030BD0099019B4A0020685208C90F01F0C1
:1038F000D9FBDBE701990098FFF7F0F90100200000
:1039000001F0FEFCD2E7C046B4D6011030B5022467
:10391000150083B04A0849002140069C0093019499
:103920002B00FFF765FC03B030BDC04610B50400A6
:10393000002909D0837C002B00D110BD0023002179
:103940008374FFF769FAF8E701F0D4FCA37C002B3D
:10395000F3D101212000FFF75FFA0123A374ECE704
:10396000F0B54E46DE4657464546E0B5BE4B87B0FD
:103970009B6A040043608946FEF72CF9002812D1A7
:10398000FEF718FC0A25FEF733FCB84E142200217E
:103990002000FEF741FCB04213D00120013D02F0AF
:1039A0004BFF002DF2D1B24805F07AFF06235B42AF
:1039B0009846404607B0F0BCBB46B246A946A04672
:1039C000F0BD002200212000AA4BFEF7E5FC0028F4
:1039D000E9D1002200212000FEF73CFC04231D2237
:1039E00000212000FEF7A2FF0028DCD19923042249
:1039F00000212000FEF79AFF0028D4D1BE23062222
:103A000000212000FEF79EFE8046031ECBD101213F
:103A10002000994A0833FEF789FF0A254026012134
:103A20002000954AFEF782FC06420CD10120013DA0
:103A300002F002FF002DF2D1904805F031FF06237D
:103A40005B429846B5E700238B4A01212000FEF730
:103A50006DFF20008A49FFF70FF9E022C025012100
:103A600020009201FEF762FCA3686D05AB4213D003
:103A70006B401A0E01D000F017FDFF221204134212
:103A800001D000F004FDFF221202134201D000F029
:103A9000F5FCC0235B05A36020007949FFF7ECF833
:103AA000E022012120009201FEF740FCC026A3681D
:103AB00005007605B34213D073401A0E01D000F012
:103AC000D3FCFF221204134201D000F0C0FCFF22FD
:103AD0001202134201D000F0B1FCC0235B05A360C9
:103AE000EB0701D400F077FD20006649FFF7C4F82A
:103AF0009022C02501212000D201FEF717FCA36807
:103B00006D05AB4213D06B401A0E01D000F08CFC57
:103B1000FF221204134201D000F079FCFF221202AE
:103B2000134201D000F06AFCC0235B05A3602000B3
:103B30005449FFF7A1F8902201212000D201FEF79D
:103B4000F5FBC026A36805007605B34213D0734089
:103B50001A0E01D000F048FCFF221204134201D0DB
:103B600000F035FCFF221202134201D000F026FCC7
:103B7000C0235B05A360EB0701D400F036FDC02530
:103B800002212000FFF756FCA3686D05AB4212D05E
:103B90006B401A0E01D000F007FCFF221204134202
:103BA00001D000F0F4FBFF221202134200D0E5E343
:103BB000C0235B05A360C025032301212000324AF6
:103BC000FEF7CCFCA3686D05AB4210D06B401A0E1B
:103BD00000D0CAE3FF221204134200D0B9E3FF224F
:103BE0001202134200D0ACE3C0235B05A360C025E2
:103BF000002301212000254AFEF7B0FCA3686D05D3
:103C0000AB4210D06B401A0E00D091E3FF22120499
:103C1000134200D080E3FF221202134200D056E389
:103C2000C0235B05A3601A4B1A499B461A4B1B4ADB
:103C300059444E785B449A5C36021643FA2252008D
:103C4000964201DB00F0CCFC154A9B5C002B01D0B6
:103C500000F0C6FC502E01DC00F0C2FC114B124FEC
:103C600050259A465F4426E000400540ADBEEDFE7B
:103C7000D8D60110B30402000E00010040D7011095
:103C8000003810180048101810C0000044C0000090
:103C900054F80110AC6B03009E6803000E03000093
:103CA0000D030000F8D60110AB6B03000135AE42E6
:103CB00001DC00F095FC09225146781B14F052FB00
:103CC0000028F3D140235B425B4400279A463D0025
:103CD000A368EE0B4037F6039E420ED073401A0ED7
:103CE00000D026E2FF221204134200D02EE2FF226F
:103CF0001202134200D015E2A66053466A04DB1993
:103D00000093012140232000520CFEF749FF0028B8
:103D100003D1DB239B029F42D9D1C0239B00002605
:103D20009A46794F794D0DE0FEF7A6FF6A0400230D
:103D300001212000520C0097FEF732FF002814D119
:103D4000403540374036290020005645ECD8FEF774
:103D500093FF6A04402301212000520C0097FEF7D4
:103D60001FFF002801D15645EAD1F025A368ED02D6
:103D7000AB4210D06B401A0E00D09FE2FF2212041B
:103D8000134200D08FE2FF221202134200D082E2DF
:103D9000F023DB02A360C0255D4B012120005D4ABA
:103DA000FEF7DCFBA3686D05AB4210D06B401A0E2A
:103DB00000D067E2FF221204134200D056E2FF2235
:103DC0001202134200D049E2C0235B05A360012127
:103DD0002000FFF72FFB20004F49FEF74DFF012188
:103DE00020004E4AFEF7A2FAC026A3680500760519
:103DF000B34210D073401A0E00D026E2FF22120404
:103E0000134200D015E2FF221202134200D008E252
:103E1000C0235B05A36003202840012802D040484E
:103E200005F03EFD20003F49FEF726FFE02201217C
:103E300020009201FEF77AFAC026A36805007605F5
:103E4000B34210D073401A0E00D0E1E1FF221204F9
:103E5000134200D0D0E1FF221202134200D0C3E18E
:103E6000C0235B05A360EB0700D5B9E1FA258026E6
:103E7000AD0006E00120013D02F0DEFC002D00D186
:103E80006AE301212000284AFEF750FA0642F1D0E9
:103E9000C025A3686D05AB4210D06B401A0E00D050
:103EA00051E3FF221204134200D040E3FF2212022A
:103EB000134200D033E3C0235B05A360C025F02389
:103EC00001212000194AFEF749FBA3686D05AB42AA
:103ED00010D06B401A0E00D018E3FF2212041342D8
:103EE00000D007E3FF221202134200D0FAE2C023FF
:103EF0005B05A360FA252023012120000C4AFEF770
:103F000015FD2026AD001CE010D90110FCFC0700B7
:103F1000C0003FFFFCFF0000083410180834000008
:103F20002CD70110003810180E00010024A000004A
:103F3000080001000120013D02F07EFC002D00D1AF
:103F400012E3082200212000FEF784F90642F1D096
:103F50000121E34A2000FEF7E9F9C3B20220012162
:103F60000343DF4A2000FEF7E1FC0823F022002192
:103F70002000FEF7DBFC02230121DA4A2000FEF7D5
:103F8000D5FC01212000D84AFEF7D0F9C30700D4A0
:103F90009FE20F230121D54A2000FEF7C7FC002332
:103FA0000121D24A2000FEF7C1FC0121CF4A2000A6
:103FB000FEF7BCF9042200212000FEF781F9C307B7
:103FC00000D57FE2C025A3686D05AB4210D06B40E1
:103FD0001A0E00D0FBE0FF221204134200D0EAE0E8
:103FE000FF221202134200D0DDE0C0235B05A36074
:103FF000C02501212000BE4AFEF72CF9A3686D05FB
:10400000AB4210D06B401A0E00D0C3E0FF22120466
:10401000134200D0B2E0FF221202134200D0A5E00A
:10402000C0235B05A360200001F064F9A37C002B92
:1040300000D194E0AF4F250039003835082208310F
:10404000280005F0C5FAAC4BF622DB2123642000E2
:104050000023920089026264A36459444C3005F045
:10406000B7FAFC2308229B000221FF3220000095B2
:10407000FFF750F9390013221431280005F0A8FA8F
:10408000832213230021200000955200FFF742F9FC
:10409000A36B002B00D011E20B229849280005F0F9
:1040A00097FA002643230822E6540133E6540133ED
:1040B000E65401330221E654FF32373B20000196DB
:1040C0000095FFF795F806228D49280005F080FA43
:1040D0003E230122E25408220133E6540133E65420
:1040E0000133E6540221373B200001960095FF3250
:1040F000FFF77EF84B46002B00D13DE220004946F9
:104100000622463018F0B8FE0E2228007D4905F040
:104110005FFA08221423022120000095FF32FFF7E6
:10412000F9F846E401212000774A330AFEF7FEFB46
:10413000E2E50023754A01212000FEF7F7FBFF228C
:10414000A36812047340134200D1D0E5330C01215F
:1041500020006F4AFEF7EAFBA3687340C7E5012120
:104160002000FEF759FE0123A37463E7C023012159
:104170002000654A5B03FEF7D9FB51E7C023644A80
:104180005B0101212000FEF7D1FBC023A2685B0583
:10419000534040E71823012120005C4AFEF7C6FB8C
:1041A000A3686B4032E7C02301212000564A5B031D
:1041B000FEF7BCFB19E7C023554A5B010121200033
:1041C000FEF7B4FBC023A2685B05534008E7182341
:1041D000012120004D4AFEF7A9FBA3686B40FAE6D7
:1041E0004C4805F05DFB41E6C02301212000464A12
:1041F0005B03FEF79BFB33E6C023454A5B010121CD
:104200002000FEF793FBC023A2685B05534022E623
:104210001823012120003D4AFEF788FBA368734064
:1042200014E6C02301212000374A5B03FEF77EFB22
:10423000EEE5C023364A5B0101212000FEF776FB44
:10424000C023A2685B055340DDE51823012120004F
:104250002E4AFEF76BFBA3687340CFE5C023012114
:104260002000294A5B03FEF761FBADE5C023284A25
:104270005B0101212000FEF759FBC023A2685B050A
:1042800053409CE5182301212000204AFEF74EFBF5
:10429000A3686B408EE5F023012120001A4ADB0061
:1042A000FEF744FB74E50723194A01212000FEF7BD
:1042B0003DFBF023A268DB02534064E500230121AB
:1042C0002000124AFEF732FBA3686B4056E5C0237C
:1042D000012120000C4A5B03FEF728FBA0E4C04646
:1042E0001E0001000E0001001F0001000F00010070
:1042F000088500009CD8011006100200B4D70110F8
:10430000C0D70110C8D701100A0001000C0001003D
:104310000B0001002CD70110C023B64A5B0101211C
:104320002000FEF703FBC023A2685B05534072E444
:10433000182301212000B04AFEF7F8FAA3686B4069
:1043400064E4C02301212000AC4A5B03FEF7EEFACF
:104350004AE4C023A74A5B0101212000FEF7E6FAE8
:10436000C023A2685B05534039E4182301212000D3
:10437000A14AFEF7DBFAA3686B402BE4C0230121BE
:1043800020009E4A5B03FEF7D1FAFFF711FCC02321
:10439000984A5B0101212000FEF7C8FAC023A268F9
:1043A0005B055340FFF7FFFB182301212000924AD1
:1043B000FEF7BCFAA3686B40FFF7EFFBC0230121B7
:1043C00020008E4A5B03FEF7B1FAFFF7D1FBC02352
:1043D000884A5B0101212000FEF7A8FAC023A268E9
:1043E0005B055340FFF7BEFB182301212000824AE2
:1043F000FEF79CFAA3687340FFF7AEFBC0230121D0
:1044000020007E4A5B03FEF791FAFFF78DFBC02385
:10441000784A5B0101212000FEF788FAC023A268D8
:104420005B055340FFF77AFB182301212000724AF5
:10443000FEF77CFAA3686B40FFF76AFBC0230121FB
:1044400020006E4A5B03FEF771FAFFF746FBC023BC
:10445000684A5B0101212000FEF768FAC023A268C8
:104460005B055340FFF733FB182301212000624A0C
:10447000FEF75CFAA3687340FFF723FBC02301211A
:1044800020005E4A5B03FEF751FAFFF702FBC023F0
:10449000584A5B0101212000FEF748FAC023A268B8
:1044A0005B055340FFF7EFFA182301212000524A21
:1044B000FEF73CFAA3686B40FFF7DFFA504805F0BF
:1044C000A5FAE9E583B2042200212000FEF73AF9BB
:1044D00078E5C3B20120012103434A4A2000FEF7D8
:1044E00025FA56E5C02301212000444A5B03FEF76C
:1044F0001DFAFCE4C0233F4A5B0101212000FEF7C6
:1045000015FAC023A2685B055340EBE41823012190
:104510002000394AFEF70AFAA3686B40DDE4C023A5
:1045200001212000354A5B03FEF700FAC3E4C023F3
:10453000304A5B0101212000FEF7F8F9C023A26890
:104540005B055340B2E41823012120002A4AFEF7FC
:10455000EDF9A3686B40A4E42B4805F0A1F906230C
:104560005B429846FFF725FA284805F099F906239B
:104570005B429846FFF71DFA6A463900BB6A303144
:104580000493BB8D28009382142205F021F8832226
:1045900014230021200000955200FEF7BBFE0028E6
:1045A00006D0002002A9FDF711F802AB9946A5E557
:1045B0000622290002A805F00BF8029B049A9342F8
:1045C00003D000239846FFF7F4F96B469A899B8A3B
:1045D0009A42F6D1E5E70E4805F062F9FFF784FA52
:1045E0000C4805F05DF9FFF798FB094805F058F90C
:1045F000FFF7C5FA0B0001000C0001000A000100E2
:104600009CD701101F0001006CD7011084D7011046
:1046100098D6011004D70110F0B5DE464E46454647
:104620005746E0B506000D009C49383604000822C4
:104630004831300083B004F0CBFF40222B04E9B2B4
:10464000A1541B0E0132A3544220002222540130F7
:104650002254280C00D00EE1FF32443022540130A5
:10466000225401302254013022544822A154914650
:1046700001320025A35490464A274B2308220221E9
:10468000FF32E5552000E5540096373BFEF742FE29
:10469000322002F0D1F83823E5540133E5540133D8
:1046A000E554013340220221E5542000373B0096B7
:1046B000FEF730FE0B227A49300004F089FF4322D6
:1046C000A554934692460132A5544521462008221E
:1046D0000F236554FF32255443392000019500967D
:1046E000FEF786FD06226F49300004F071FF3E237D
:1046F0000122E25408220133E5540133E554013329
:104700000221E554FF32373B200001950096FEF769
:104710006FFD0F226449300004F05AFF472308223E
:10472000E2544B460822E55443460221E554FF3249
:10473000363B2000E55501950096FEF759FD0B220A
:104740005A49300004F044FF04235246A354013276
:10475000A55445214620082265540B332554FF32C9
:104760004339200001950096FEF742FD1022504982
:10477000300004F02DFF4A46A55442464B23A55471
:1047800008220221E555FF32E5542000373B019510
:104790000096FEF72DFD474B60689B6A464AA3448E
:1047A000191A914200D870E020001322FF214E30E8
:1047B00004F008FF5023E722E25403330732E254A7
:1047C00001332F3AE2540233403AE25430003B497D
:1047D0006D3A04F0FDFE082229230221FF32200059
:1047E0000096FEF797FD322002F026F801233822CA
:1047F00000252000A3540132A5540132A5540132F2
:10480000A5540132A3543C33E55422320133E2541F
:104810000133E5540133E5549D320133E254002164
:10482000C53A423004F0CEFE31004022584618F01E
:1048300023FB0B223000224904F0CAFE08224B233E
:104840000221FF3220000096FEF764FD322001F0C5
:10485000F3FF00230222022120000095FEF75AFDFB
:10486000322001F0E9FF002003B0F0BCBB46B246A5
:10487000A946A046F0BD4427E05545202D0E2554FD
:104880000130225401302254EFE6C01A0D4B0021B2
:104890009C46604401F0B8FF86E7C0469CD80110F2
:1048A000B4D70110C0D70110D8D70110E8D7011034
:1048B000F4D7011000400540EF49020004D8011070
:1048C00018D80110F049020070B506000D000E491D
:1048D0003836040082B014223031300004F078FE03
:1048E000832220001423002100965200FEF712FDBF
:1048F000041E02D0200002B070BD06223100280044
:1049000004F066FEF6E7C0469CD80110F0B5DE461E
:104910004E4657464546E0B504008B46994683B05F
:10492000C82A00D8AEE0C822382398469500A04493
:1049300040465749AD180E2204F04AFE462347264A
:1049400042466D00E5542D0AA55500250092082227
:104950009A460233E5540133E5540221373B2000E7
:104960000195FF32FEF744FC0B224046494904F012
:104970002FFE4A4643234427E254130AE35549468F
:10498000130C4522A3540B0E514608226354414692
:104990000F230091200002210195FF32FEF728FC31
:1049A0000C2240463C4904F013FE45220C9920009D
:1049B0000B0AE155A3540B0C514663540C99082281
:1049C0000F0E4146A7551023009101950221FF3299
:1049D000FEF70EFC0D224046304904F0F9FD452259
:1049E0000D992000A15452460B0AA3540B0CA35559
:1049F00048230E0EE65408224346022100930195F7
:104A00001123FF32FEF7F4FB5A463823E2549A464C
:104A100001339946130A4A46A3545B463A271B0CB6
:104A2000E3555B463B26190E4346A15500930221F0
:104A3000042320001D32FEF76DFC52460123A354CF
:104A40004B46E5544346E5550093022104232000DC
:104A5000A5553632FEF75EFC5346E5544B46E55409
:104A60004346E55500938E22042302212000A555DC
:104A7000FEF750FC002003B0F0BCBB46B246A9468E
:104A8000A046F0BD002A00D04EE701324CE7C046F8
:104A900024D8011034D8011040D801104CD801108E
:104AA0003823042200B5C254002335328354013226
:104AB000835401328354030083B0383300930221BE
:104AC00004236A32FEF726FC03B000BD00B5054B97
:104AD00083B0C31800931A2224230221FEF71AFC84
:104AE00003B000BD1C080000F0B5DE4657464E4638
:104AF0004546E0B506000F00A54985B038360400EC
:104B000003925431042230009A4604F061FD0123DF
:104B1000994648463B33E0543F2100233E258322FB
:104B20003C302354520063558846635420000021D2
:104B300008330096FEF7EEFB382339203A21E25C79
:104B4000235C655C1B028B4601311A43635C2D04B8
:104B500015431B061D4307D0002005B0F0BCBB4623
:104B6000B246A946A046F0BD0F228A49300004F0A3
:104B70002FFD022347224921A3540132A5540232BA
:104B80006554A55408221133FF324739200001959E
:104B90000096FEF72DFB382349463920E15459464B
:104BA000255404336554013165543E22E7540430E2
:104BB0003B0A235440463B0CA3543B0E2354013084
:104BC0008046A04400211E3A404604F0FBFC3A0017
:104BD0000399404604F0FCFC2000282231004430B8
:104BE00018F04AF90C226C49300004F0F1FC08225C
:104BF00034230221FF3220000096FEF78BFB109B2E
:104C000039209C461F1C3823E75467463B0A23542F
:104C100058463B213B0C23543B0E63541E22042375
:104C2000393920000096FEF775FB0C225B493000F5
:104C300004F0CEFC44234846E0540133E5540133EC
:104C4000E5540133E554482253464927A3541B0A2F
:104C5000E355534601371B0CE355534608221B0E00
:104C60000137E3550221142320000096FF32FEF79E
:104C700051FB5346002B4CD0494B4A4953445A42AE
:104C800053417F225B429343984684239C466F3A6C
:104C90003000E04404F09CFC48224B46A35401320F
:104CA000A5540132A55442464B33E555E25408223F
:104CB0000133E5540133E5540133E5540221373B18
:104CC000FF3220000096FEF725FB382339200E9A8C
:104CD0003B21E254130A23544A465B46E25465548E
:104CE00025003C3500213F32280004F06BFC0E9A71
:104CF0000F99280004F06CFC022001F09DFD4B464A
:104D00008622019302212000009643335200FEF7D1
:104D10006FFA012738230025E7549B460133E554F9
:104D20009A460133E554994601339846E5546E227C
:104D3000373B0221200001970096FEF759FA09221D
:104D40003000194904F044FC41231622E2540822A1
:104D50000133E5540133E5540133E55402212000C9
:104D600001970096373BFF32FEF742FA5B46E75465
:104D70005346E5544B46E55443464E22E554022142
:104D8000200001970096373BFEF732FAE4E6C04672
:104D90009CD80110D8D701105CD8011068D8011038
:104DA000FEFFDFFF74D8011084D8011070B5060033
:104DB0003836040082B00D00042230000F4904F0A0
:104DC00007FC3C230122E25400233C32A35401326D
:104DD000A3540132A3540132A5540132A354013229
:104DE000A3540132A3540221200000960C33C43294
:104DF000FEF790FA002002B070BDC04690D80110B6
:104E0000F0B5040083B002292BD801238B40002A7F
:104E100024D10027DDB2260038360822124930009E
:104E200004F0D6FB40234122E5540023A354013271
:104E3000A3540132A3540132A7540132A3540132C6
:104E4000A3540132A35408220221200000961033FB
:104E5000FF32FEF75FFA002003B0F0BDDFB23D0085
:104E6000D9E701204042F7E794D80110F0B50700D8
:104E700004000E00150083B03837022926D81549E2
:104E800009226831380004F0A3FB832209230021A2
:104E9000200000975200FEF73DFA002814D10123AC
:104EA000B34039221E003823A25CE35C12021A438D
:104EB0003A23E15C0133E35C09040A431B06134314
:104EC00033405A1E93412B7003B0F0BD0120404285
:104ED000FAE7C0469CD8011010B5006800F004FA4B
:104EE000013843425841C0B210BDC0460B4B10B50B
:104EF00083610B4B3A2243610A4B0400038639233A
:104F0000C25402000233C15C32323039406A00F0D0
:104F100073FB382306220020E25410BD294F0010F5
:104F2000AD600110DC05000010B50B000A893B21C3
:104F30000124415C82B0406A3039009400F0FCFAF0
:104F400001000020002901D102B010BD024804F088
:104F50005DFD0C204042F7E7F8DB0110F0B50400DE
:104F60000D0089B000292AD08F0177212E4B2F4ABE
:104F7000069304932E4B05932E4B07932E4BFE184E
:104F8000C3199A1811702D4A861994462A00634451
:104F900030321A702A4B009002932A4B3000019352
:104FA00005AA06AB04A907F0A3FE002E1FD100201E
:104FB00007F06AFF002007F06DFF09B0F0BD224B3B
:104FC000224A06931A4B049105931A4B04A907939E
:104FD000194B0027C618154BC252194B009002936B
:104FE000184B3000019305AA06AB07F081FE902311
:104FF0001B019C46E719164B674430003B6007F0E5
:1050000043FF300007F046FF002DD6D107A900204E
:1050100007F0B8FB0F4B3000E1180EF06BF83000D2
:105020000EF0FCF9C9E7C046C0A804010E09000053
:10503000FFFFFF0008080808D40800000F0900005F
:1050400041760110ED4E0010C0A80001773000003D
:105050001CDC011054090000104B70B59C468C01FB
:1050600064440419002914D00D4B1B68002B06D092
:10507000002539269C4203D01B68002BFAD170BD55
:10508000200007F0B7FE6560A5552368002BF1D11D
:10509000F5E720000EF0B8FBE6E7C046D4080000B4
:1050A0009CC50020F8B5CE46474699468D01144B65
:1050B00080B54719FB181B7804005B0703D4C0BCFC
:1050C000B946B046F8BD96B2C12231000020520068
:1050D00007F074FF80460028F1D04946320008F0FE
:1050E00099FA084B4046E918074B61189C466744FB
:1050F0003B6898470028E2D0404608F0F9F8DEE720
:105100000D090000D4080000E4080000044B10B5AD
:105110009C4689016144401807F0E2FE10BDC0467C
:10512000D4080000044B10B59C4689016144401826
:1051300007F0FEFE10BDC046D408000010B5284B95
:1051400082B01B68002B17D0264C2000FFF7C4FE4E
:1051500000283DD1244BE25C002A2CD1234BE25C99
:10516000002A1ED1224BE25C002A0CD1214B1B6885
:10517000002B03D0FCF792FA02B010BD01212000F1
:10518000FEF7D4FBF6E700222000E254FFF79EFC76
:10519000862301221B01E250164B1B68002BE9D12C
:1051A000ECE700222000E254FFF77AFC104BE25CAF
:1051B000002ADBD0E7E700226921E2542000002327
:1051C0000092FEF7A3FB094BE25C002ACAD0E8E795
:1051D0002000FEF767FB044BE25C002ABED0EAE742
:1051E00098180020A01800206D0800006F0800002B
:1051F0006E0800009C18002070B58023D025802602
:1052000004002D065B04AB62360400220021182046
:1052100000F00AFC6E6200220021172000F004FC5E
:10522000AE6121002000FEF7FDFA00230321084AA9
:10523000A354084AA3500432A3501032A154064A82
:10524000A352064A13600122054BE25070BDC046CE
:10525000540800005C080000720800009818002044
:105260006C080000F8B51B4E04003368002B30D0EA
:105270000021FFF7F1FE01212000FFF7EDFE2000E5
:10528000FEF7DCFAD025802380275B042D06AB6275
:105290000022002118203F0400F0C6FB002200215C
:1052A00017206F6200F0C0FB21002000AF61FEF705
:1052B000B9FA00230321084A3360A354074AA350D4
:1052C0000432A3501032A154054AA3520122054BC7
:1052D000E250F8BD98180020540800005C08000057
:1052E000720800006C080000D0231B065868C0013B
:1052F000C00F70473222014B1A6070479C18002083
:10530000804B70B5C35805000C00DB072ED46368D2
:10531000452B1BD00B2B54D0172B0CD0002B00D0BF
:105320006FE0A368002B65D186231B01EB58764AFA
:1053300093423DD070BDA368002BF5D1E368082BE4
:10534000F2D10222714BFF32EA5269E0704BEA5807
:10535000012AE9D1A268082A00D1B0E0002AE3D1ED
:105360000222EA5086231B01EB58E0E701F052FBD2
:1053700000292FD0FA220023920003F0CDFC62888E
:105380000100644804F042FB616858292ED8624B42
:105390008A00D358002B29D01900604804F036FB4E
:1053A0002E23E268E35CA1685D4804F02FFBAEE7C2
:1053B000862301221B0100212800EA50FFF7A6FEE8
:1053C000B8E700212800FFF7ADFE862300221B016D
:1053D000EA50AFE7FA21890003F05CFC6288010023
:1053E0004C4804F013FB61685829D0D94D4804F0AB
:1053F0000DFBD5E7032B5BD0862302221B01EA506D
:1054000098E7032B10D0062B24D1A368002B00D0E3
:105410008AE7E368022B00D086E7434B0122EA5477
:105420004248FCF77BF97FE7A368002B27D186234E
:105430001B01EA580F2319001140042903D19A4394
:10544000130001221A4380239B001343862212017A
:10545000AB506CE7102B1AD1A368002B00D063E788
:105460006388DB073ED52E23E15C002943D18622E9
:1054700080231201A958DB000B43AB5057E7062BE2
:1054800000D151E7862304221B01EA5052E72E2B5C
:1054900000D049E7A368062B1CD004211A1F8A43B9
:1054A00001D00B2BEED1E3680F2BEBD1174BB5E7F7
:1054B000E268002AA0D186221201AB503AE721000F
:1054C0001B4B3031E8581B4BEB58984786231B0188
:1054D000EB582CE7862280231201A9581B010B43AD
:1054E000AB5024E72E232800E15CFFF71BFE862348
:1054F0001B01EB581BE72800FFF708FE86231B0162
:10550000EB5814E758080000010E00006E08000078
:105510005C08000024DC0110ECDC011038DC011018
:1055200040DC01103CDC01106D0800003D51001012
:105530006408000068080000F0B557464E4645462E
:10554000DE46E0B583B01F000CAB1B780D0099461A
:10555000244B040098461B6816009A460021002B35
:1055600010D0FEF7E3F94B463200009329003B00D0
:105570002000FEF767F903B0F0BCBB46B246A9466F
:10558000A046F0BDFFF768FD01212000FFF764FD94
:105590005246154B1420E254D0231B069A46802312
:1055A0001B049B4653465A469A6101F045F95346FF
:1055B0005A4632205A6101F03FF900212000FEF7DF
:1055C000CFF90028D7D1094B2000E118FFF77CF96B
:1055D0003222074B07481A6043461860FCF79EF8D2
:1055E000C1E7C04698180020540800008809000050
:1055F0009C1800203D51001010B500201100FBF751
:10560000F9FF002010BDC046F0B5CE46474680B534
:1056100004000D001E0085B0002A10D0A24FC35D0B
:10562000002B1BD0012D48D09F4F0126E35D2B415D
:105630001E4235D005B0C0BCB946B046F0BD012908
:10564000F8D19A4E00213568002D00D1DAE0FEF73E
:105650006DF900212000FFF7A9FBEBE7934B002138
:1056600098461B689946002B50D0FEF75FF9310031
:105670002000FEF7D1FF0028DCD143461E68002140
:105680002000002E00D194E0FEF750F90A23019388
:10569000093B1422022120000093FFF737F9C1E7EC
:1056A000AE4029002000FFF7D7FC29002000FFF7BB
:1056B00055FCE35D1E43E655BCE77C4B00211E68AC
:1056C00098462000002E4CD0FEF730F9784A794BEE
:1056D000A15C023AA25C20000292774AE35CA21825
:1056E0000192764AA25C0092754AA218FFF7FCF973
:1056F00043461E6800212000002E00D1AAE0FEF7DC
:1057000015F901212000FFF751FB8DE7FFF7A4FCFD
:1057100001212000FFF7A0FC4B46E3558023D02752
:105720001B0499463F061420BB6101F085F84B46E7
:1057300032207B6101F080F800212000FEF710F993
:10574000002800D076E75F4B2000E118FFF7BCF897
:1057500032225D4B5D481A6043461860FBF7DEFF5E
:1057600085E7FFF779FC01212000FFF775FC4E4B20
:105770008027E654D0263F0436061420B76101F096
:105780005BF83220776101F057F800212000FEF726
:10579000E7F80028ACD14B4B2000E118FFF794F854
:1057A0003222494B49481A6043461860FBF7B6FF5E
:1057B0008CE7FFF751FC01212000FFF74DFC3A4B2D
:1057C0008027E654D0263F0436061420B76101F046
:1057D00033F83220776101F02FF800212000FEF726
:1057E000BFF8002800D01DE7364B2000E118FFF776
:1057F0006BF83222344B35481A6043461860FBF789
:105800008DFF43E7FFF728FC01212000FFF724FC70
:10581000254B8027E554D0253F042D061420AF6189
:1058200001F00AF832206F6101F006F80021200033
:10583000FEF796F8002800D0FCE6224B2000E11885
:10584000FFF742F83222204B20481A603060FBF705
:1058500065FFFEE6FFF700FC01212000FFF7FCFBDF
:10586000114B8027E654D0263F0436061420B7613A
:1058700000F0E2FF3220776100F0DEFF002120001F
:10588000FEF76EF8002800D0CEE60E4B2000E1189F
:10589000FFF71AF832220C4B0C481A604346186086
:1058A000FBF73CFF2DE7C046540800009818002085
:1058B00072080000710800009408000073080000DE
:1058C00074080000880900009C1800203D51001059
:1058D000F8B54746CE4680B51D4F88463D68040062
:1058E00016000021002D0AD0FEF720F832004146B4
:1058F0002000FFF785FAC0BCB946B046F8BDFFF7F7
:10590000ABFB01212000FFF7A7FB124B1420E5544D
:105910008023D0251B0499462D06AB6100F08CFF37
:105920004B4632206B6100F087FF00212000FEF71C
:1059300017F80028DFD1084B2000E118FEF7C4FF5C
:105940003222064B06481A603860FBF7E7FECDE7C7
:105950009818002054080000880900009C180020B6
:105960003D510010F8B54746CE4680B51D4F8846DC
:105970003D68040016000021002D0AD0FDF7D6FF77
:10598000320041462000FFF771FAC0BCB946B0466C
:10599000F8BDFFF761FB01212000FFF75DFB124B13
:1059A0001420E5548023D0251B0499462D06AB61B5
:1059B00000F042FF4B4632206B6100F03DFF0021BA
:1059C0002000FDF7CDFF0028DFD1084B2000E118B3
:1059D000FEF77AFF3222064B06481A603860FBF762
:1059E0009DFECDE7981800205408000088090000AB
:1059F0009C1800203D510010094A83009446402223
:105A0000634410B51C68C0006240C024144080226A
:105A1000520113431C60034B9C466044416010BD1F
:105A200004C00140004001400A4B80009C46042312
:105A30006044002901D00C230821002A00D10B006A
:105A4000026853400C221A4080235B011843026015
:105A50007047C04604C00140084B80009C4660442B
:105A6000002905D080239B0118430223036070475F
:105A7000C0239B01184302230360F8E704C00140E0
:105A8000D0231B061B6830B50500581E83410F4804
:105A90005C42844607203023284023408000EC08E5
:105AA000814020000A4D3C3063448000A4004151F5
:105AB0001B19002A04D0802292011343196030BDC3
:105AC000C022920113431960F9E7C046004101402A
:105AD00000400140D023F0B5C64604001B0698469E
